{
  "_format": "hh-sol-artifact-1",
  "contractName": "MyEpicGame",
  "sourceName": "contracts/MyEpicGame.sol",
  "abi": [
    {
      "inputs": [
        {
          "internalType": "string[]",
          "name": "characterNames",
          "type": "string[]"
        },
        {
          "internalType": "string[]",
          "name": "characterImageURIs",
          "type": "string[]"
        },
        {
          "internalType": "uint256[]",
          "name": "characterHp",
          "type": "uint256[]"
        },
        {
          "internalType": "uint256[]",
          "name": "characterAttackDmg",
          "type": "uint256[]"
        },
        {
          "internalType": "string",
          "name": "trollName",
          "type": "string"
        },
        {
          "internalType": "string",
          "name": "trollImageURI",
          "type": "string"
        },
        {
          "internalType": "uint256",
          "name": "trollHp",
          "type": "uint256"
        },
        {
          "internalType": "uint256",
          "name": "trollAttackDamage",
          "type": "uint256"
        }
      ],
      "stateMutability": "nonpayable",
      "type": "constructor"
    },
    {
      "anonymous": false,
      "inputs": [
        {
          "indexed": true,
          "internalType": "address",
          "name": "owner",
          "type": "address"
        },
        {
          "indexed": true,
          "internalType": "address",
          "name": "approved",
          "type": "address"
        },
        {
          "indexed": true,
          "internalType": "uint256",
          "name": "tokenId",
          "type": "uint256"
        }
      ],
      "name": "Approval",
      "type": "event"
    },
    {
      "anonymous": false,
      "inputs": [
        {
          "indexed": true,
          "internalType": "address",
          "name": "owner",
          "type": "address"
        },
        {
          "indexed": true,
          "internalType": "address",
          "name": "operator",
          "type": "address"
        },
        {
          "indexed": false,
          "internalType": "bool",
          "name": "approved",
          "type": "bool"
        }
      ],
      "name": "ApprovalForAll",
      "type": "event"
    },
    {
      "anonymous": false,
      "inputs": [
        {
          "indexed": false,
          "internalType": "address",
          "name": "sender",
          "type": "address"
        },
        {
          "indexed": false,
          "internalType": "uint256",
          "name": "newTrollHp",
          "type": "uint256"
        },
        {
          "indexed": false,
          "internalType": "uint256",
          "name": "newCharacterHp",
          "type": "uint256"
        }
      ],
      "name": "AttackComplete",
      "type": "event"
    },
    {
      "anonymous": false,
      "inputs": [
        {
          "indexed": false,
          "internalType": "address",
          "name": "sender",
          "type": "address"
        },
        {
          "indexed": false,
          "internalType": "uint256",
          "name": "tokenId",
          "type": "uint256"
        },
        {
          "indexed": false,
          "internalType": "uint256",
          "name": "CharacterIndex",
          "type": "uint256"
        }
      ],
      "name": "CharacterNFTMinted",
      "type": "event"
    },
    {
      "anonymous": false,
      "inputs": [
        {
          "indexed": true,
          "internalType": "address",
          "name": "from",
          "type": "address"
        },
        {
          "indexed": true,
          "internalType": "address",
          "name": "to",
          "type": "address"
        },
        {
          "indexed": true,
          "internalType": "uint256",
          "name": "tokenId",
          "type": "uint256"
        }
      ],
      "name": "Transfer",
      "type": "event"
    },
    {
      "inputs": [
        {
          "internalType": "address",
          "name": "to",
          "type": "address"
        },
        {
          "internalType": "uint256",
          "name": "tokenId",
          "type": "uint256"
        }
      ],
      "name": "approve",
      "outputs": [],
      "stateMutability": "nonpayable",
      "type": "function"
    },
    {
      "inputs": [],
      "name": "attackTroll",
      "outputs": [],
      "stateMutability": "nonpayable",
      "type": "function"
    },
    {
      "inputs": [
        {
          "internalType": "address",
          "name": "owner",
          "type": "address"
        }
      ],
      "name": "balanceOf",
      "outputs": [
        {
          "internalType": "uint256",
          "name": "",
          "type": "uint256"
        }
      ],
      "stateMutability": "view",
      "type": "function"
    },
    {
      "inputs": [],
      "name": "checkIfUserHasNFT",
      "outputs": [
        {
          "components": [
            {
              "internalType": "uint256",
              "name": "characterIndex",
              "type": "uint256"
            },
            {
              "internalType": "string",
              "name": "name",
              "type": "string"
            },
            {
              "internalType": "string",
              "name": "imageURI",
              "type": "string"
            },
            {
              "internalType": "uint256",
              "name": "hp",
              "type": "uint256"
            },
            {
              "internalType": "uint256",
              "name": "maxHp",
              "type": "uint256"
            },
            {
              "internalType": "uint256",
              "name": "attackDamage",
              "type": "uint256"
            }
          ],
          "internalType": "struct MyEpicGame.CharacterAttributes",
          "name": "",
          "type": "tuple"
        }
      ],
      "stateMutability": "view",
      "type": "function"
    },
    {
      "inputs": [],
      "name": "getAllDefaultCharacters",
      "outputs": [
        {
          "components": [
            {
              "internalType": "uint256",
              "name": "characterIndex",
              "type": "uint256"
            },
            {
              "internalType": "string",
              "name": "name",
              "type": "string"
            },
            {
              "internalType": "string",
              "name": "imageURI",
              "type": "string"
            },
            {
              "internalType": "uint256",
              "name": "hp",
              "type": "uint256"
            },
            {
              "internalType": "uint256",
              "name": "maxHp",
              "type": "uint256"
            },
            {
              "internalType": "uint256",
              "name": "attackDamage",
              "type": "uint256"
            }
          ],
          "internalType": "struct MyEpicGame.CharacterAttributes[]",
          "name": "",
          "type": "tuple[]"
        }
      ],
      "stateMutability": "view",
      "type": "function"
    },
    {
      "inputs": [
        {
          "internalType": "uint256",
          "name": "tokenId",
          "type": "uint256"
        }
      ],
      "name": "getApproved",
      "outputs": [
        {
          "internalType": "address",
          "name": "",
          "type": "address"
        }
      ],
      "stateMutability": "view",
      "type": "function"
    },
    {
      "inputs": [],
      "name": "getTroll",
      "outputs": [
        {
          "components": [
            {
              "internalType": "string",
              "name": "name",
              "type": "string"
            },
            {
              "internalType": "string",
              "name": "imageURI",
              "type": "string"
            },
            {
              "internalType": "uint256",
              "name": "hp",
              "type": "uint256"
            },
            {
              "internalType": "uint256",
              "name": "maxHp",
              "type": "uint256"
            },
            {
              "internalType": "uint256",
              "name": "attackDamage",
              "type": "uint256"
            }
          ],
          "internalType": "struct MyEpicGame.Troll",
          "name": "",
          "type": "tuple"
        }
      ],
      "stateMutability": "view",
      "type": "function"
    },
    {
      "inputs": [
        {
          "internalType": "address",
          "name": "owner",
          "type": "address"
        },
        {
          "internalType": "address",
          "name": "operator",
          "type": "address"
        }
      ],
      "name": "isApprovedForAll",
      "outputs": [
        {
          "internalType": "bool",
          "name": "",
          "type": "bool"
        }
      ],
      "stateMutability": "view",
      "type": "function"
    },
    {
      "inputs": [
        {
          "internalType": "uint256",
          "name": "_characterIndex",
          "type": "uint256"
        }
      ],
      "name": "mintCharacterNFT",
      "outputs": [],
      "stateMutability": "nonpayable",
      "type": "function"
    },
    {
      "inputs": [],
      "name": "name",
      "outputs": [
        {
          "internalType": "string",
          "name": "",
          "type": "string"
        }
      ],
      "stateMutability": "view",
      "type": "function"
    },
    {
      "inputs": [
        {
          "internalType": "uint256",
          "name": "",
          "type": "uint256"
        }
      ],
      "name": "nftHolderAttributes",
      "outputs": [
        {
          "internalType": "uint256",
          "name": "characterIndex",
          "type": "uint256"
        },
        {
          "internalType": "string",
          "name": "name",
          "type": "string"
        },
        {
          "internalType": "string",
          "name": "imageURI",
          "type": "string"
        },
        {
          "internalType": "uint256",
          "name": "hp",
          "type": "uint256"
        },
        {
          "internalType": "uint256",
          "name": "maxHp",
          "type": "uint256"
        },
        {
          "internalType": "uint256",
          "name": "attackDamage",
          "type": "uint256"
        }
      ],
      "stateMutability": "view",
      "type": "function"
    },
    {
      "inputs": [
        {
          "internalType": "address",
          "name": "",
          "type": "address"
        }
      ],
      "name": "nftHolders",
      "outputs": [
        {
          "internalType": "uint256",
          "name": "",
          "type": "uint256"
        }
      ],
      "stateMutability": "view",
      "type": "function"
    },
    {
      "inputs": [
        {
          "internalType": "uint256",
          "name": "tokenId",
          "type": "uint256"
        }
      ],
      "name": "ownerOf",
      "outputs": [
        {
          "internalType": "address",
          "name": "",
          "type": "address"
        }
      ],
      "stateMutability": "view",
      "type": "function"
    },
    {
      "inputs": [
        {
          "internalType": "address",
          "name": "from",
          "type": "address"
        },
        {
          "internalType": "address",
          "name": "to",
          "type": "address"
        },
        {
          "internalType": "uint256",
          "name": "tokenId",
          "type": "uint256"
        }
      ],
      "name": "safeTransferFrom",
      "outputs": [],
      "stateMutability": "nonpayable",
      "type": "function"
    },
    {
      "inputs": [
        {
          "internalType": "address",
          "name": "from",
          "type": "address"
        },
        {
          "internalType": "address",
          "name": "to",
          "type": "address"
        },
        {
          "internalType": "uint256",
          "name": "tokenId",
          "type": "uint256"
        },
        {
          "internalType": "bytes",
          "name": "data",
          "type": "bytes"
        }
      ],
      "name": "safeTransferFrom",
      "outputs": [],
      "stateMutability": "nonpayable",
      "type": "function"
    },
    {
      "inputs": [
        {
          "internalType": "address",
          "name": "operator",
          "type": "address"
        },
        {
          "internalType": "bool",
          "name": "approved",
          "type": "bool"
        }
      ],
      "name": "setApprovalForAll",
      "outputs": [],
      "stateMutability": "nonpayable",
      "type": "function"
    },
    {
      "inputs": [
        {
          "internalType": "bytes4",
          "name": "interfaceId",
          "type": "bytes4"
        }
      ],
      "name": "supportsInterface",
      "outputs": [
        {
          "internalType": "bool",
          "name": "",
          "type": "bool"
        }
      ],
      "stateMutability": "view",
      "type": "function"
    },
    {
      "inputs": [],
      "name": "symbol",
      "outputs": [
        {
          "internalType": "string",
          "name": "",
          "type": "string"
        }
      ],
      "stateMutability": "view",
      "type": "function"
    },
    {
      "inputs": [
        {
          "internalType": "uint256",
          "name": "_tokenId",
          "type": "uint256"
        }
      ],
      "name": "tokenURI",
      "outputs": [
        {
          "internalType": "string",
          "name": "",
          "type": "string"
        }
      ],
      "stateMutability": "view",
      "type": "function"
    },
    {
      "inputs": [
        {
          "internalType": "address",
          "name": "from",
          "type": "address"
        },
        {
          "internalType": "address",
          "name": "to",
          "type": "address"
        },
        {
          "internalType": "uint256",
          "name": "tokenId",
          "type": "uint256"
        }
      ],
      "name": "transferFrom",
      "outputs": [],
      "stateMutability": "nonpayable",
      "type": "function"
    },
    {
      "inputs": [],
      "name": "troll",
      "outputs": [
        {
          "internalType": "string",
          "name": "name",
          "type": "string"
        },
        {
          "internalType": "string",
          "name": "imageURI",
          "type": "string"
        },
        {
          "internalType": "uint256",
          "name": "hp",
          "type": "uint256"
        },
        {
          "internalType": "uint256",
          "name": "maxHp",
          "type": "uint256"
        },
        {
          "internalType": "uint256",
          "name": "attackDamage",
          "type": "uint256"
        }
      ],
      "stateMutability": "view",
      "type": "function"
    }
  ],
  "bytecode": "0x60806040523480156200001157600080fd5b5060405162005b5a38038062005b5a833981810160405281019062000037919062000a8b565b6040518060400160405280600c81526020017f4265617454686554726f6c6c00000000000000000000000000000000000000008152506040518060400160405280600381526020017f42545400000000000000000000000000000000000000000000000000000000008152508160009081620000b4919062000e4f565b508060019081620000c6919062000e4f565b5050506040518060a00160405280858152602001848152602001838152602001838152602001828152506006600082015181600001908162000109919062000e4f565b50602082015181600101908162000121919062000e4f565b50604082015181600201556060820151816003015560808201518160040155905050620002a46040518060600160405280602b815260200162005b2f602b913960066000018054620001739062000c48565b80601f0160208091040260200160405190810160405280929190818152602001828054620001a19062000c48565b8015620001f25780601f10620001c657610100808354040283529160200191620001f2565b820191906000526020600020905b815481529060010190602001808311620001d457829003601f168201915b5050505050600660020154600660010180546200020f9062000c48565b80601f01602080910402602001604051908101604052809291908181526020018280546200023d9062000c48565b80156200028e5780601f1062000262576101008083540402835291602001916200028e565b820191906000526020600020905b8154815290600101906020018083116200027057829003601f168201915b50505050506200060060201b62001a9e1760201c565b60005b8851811015620005da57600c6040518060c001604052808381526020018b8481518110620002da57620002d962000f36565b5b602002602001015181526020018a8481518110620002fd57620002fc62000f36565b5b6020026020010151815260200189848151811062000320576200031f62000f36565b5b6020026020010151815260200189848151811062000343576200034262000f36565b5b6020026020010151815260200188848151811062000366576200036562000f36565b5b60200260200101518152509080600181540180825580915050600190039060005260206000209060060201600090919091909150600082015181600001556020820151816001019081620003bb919062000e4f565b506040820151816002019081620003d3919062000e4f565b50606082015181600301556080820151816004015560a0820151816005015550506000600c82815481106200040d576200040c62000f36565b5b90600052602060002090600602016040518060c001604052908160008201548152602001600182018054620004429062000c48565b80601f0160208091040260200160405190810160405280929190818152602001828054620004709062000c48565b8015620004c15780601f106200049557610100808354040283529160200191620004c1565b820191906000526020600020905b815481529060010190602001808311620004a357829003601f168201915b50505050508152602001600282018054620004dc9062000c48565b80601f01602080910402602001604051908101604052809291908181526020018280546200050a9062000c48565b80156200055b5780601f106200052f576101008083540402835291602001916200055b565b820191906000526020600020905b8154815290600101906020018083116200053d57829003601f168201915b5050505050815260200160038201548152602001600482015481526020016005820154815250509050620005c260405180606001604052806025815260200162005b0a602591398260200151836060015184604001516200060060201b62001a9e1760201c565b50600181620005d2919062000f94565b9050620002a7565b50620005f2600b620006ac60201b62001b401760201c565b505050505050505062001094565b620006a6848484846040516024016200061d949392919062001032565b6040516020818303038152906040527f5d1a971a000000000000000000000000000000000000000000000000000000007bffffffffffffffffffffffffffffffffffffffffffffffffffffffff19166020820180517bffffffffffffffffffffffffffffffffffffffffffffffffffffffff8381831617835250505050620006c260201b60201c565b50505050565b6001816000016000828254019250508190555050565b60008151905060006a636f6e736f6c652e6c6f679050602083016000808483855afa5050505050565b6000604051905090565b600080fd5b600080fd5b600080fd5b6000601f19601f8301169050919050565b7f4e487b7100000000000000000000000000000000000000000000000000000000600052604160045260246000fd5b6200074f8262000704565b810181811067ffffffffffffffff8211171562000771576200077062000715565b5b80604052505050565b600062000786620006eb565b905062000794828262000744565b919050565b600067ffffffffffffffff821115620007b757620007b662000715565b5b602082029050602081019050919050565b600080fd5b600080fd5b600067ffffffffffffffff821115620007f057620007ef62000715565b5b620007fb8262000704565b9050602081019050919050565b60005b83811015620008285780820151818401526020810190506200080b565b60008484015250505050565b60006200084b6200084584620007d2565b6200077a565b9050828152602081018484840111156200086a5762000869620007cd565b5b6200087784828562000808565b509392505050565b600082601f830112620008975762000896620006ff565b5b8151620008a984826020860162000834565b91505092915050565b6000620008c9620008c38462000799565b6200077a565b90508083825260208201905060208402830185811115620008ef57620008ee620007c8565b5b835b818110156200093d57805167ffffffffffffffff811115620009185762000917620006ff565b5b8086016200092789826200087f565b85526020850194505050602081019050620008f1565b5050509392505050565b600082601f8301126200095f576200095e620006ff565b5b815162000971848260208601620008b2565b91505092915050565b600067ffffffffffffffff82111562000998576200099762000715565b5b602082029050602081019050919050565b6000819050919050565b620009be81620009a9565b8114620009ca57600080fd5b50565b600081519050620009de81620009b3565b92915050565b6000620009fb620009f5846200097a565b6200077a565b9050808382526020820190506020840283018581111562000a215762000a20620007c8565b5b835b8181101562000a4e578062000a398882620009cd565b84526020840193505060208101905062000a23565b5050509392505050565b600082601f83011262000a705762000a6f620006ff565b5b815162000a82848260208601620009e4565b91505092915050565b600080600080600080600080610100898b03121562000aaf5762000aae620006f5565b5b600089015167ffffffffffffffff81111562000ad05762000acf620006fa565b5b62000ade8b828c0162000947565b985050602089015167ffffffffffffffff81111562000b025762000b01620006fa565b5b62000b108b828c0162000947565b975050604089015167ffffffffffffffff81111562000b345762000b33620006fa565b5b62000b428b828c0162000a58565b965050606089015167ffffffffffffffff81111562000b665762000b65620006fa565b5b62000b748b828c0162000a58565b955050608089015167ffffffffffffffff81111562000b985762000b97620006fa565b5b62000ba68b828c016200087f565b94505060a089015167ffffffffffffffff81111562000bca5762000bc9620006fa565b5b62000bd88b828c016200087f565b93505060c062000beb8b828c01620009cd565b92505060e062000bfe8b828c01620009cd565b9150509295985092959890939650565b600081519050919050565b7f4e487b7100000000000000000000000000000000000000000000000000000000600052602260045260246000fd5b6000600282049050600182168062000c6157607f821691505b60208210810362000c775762000c7662000c19565b5b50919050565b60008190508160005260206000209050919050565b60006020601f8301049050919050565b600082821b905092915050565b60006008830262000ce17fffffffffffffffffffffffffffffffffffffffffffffffffffffffffffffffff8262000ca2565b62000ced868362000ca2565b95508019841693508086168417925050509392505050565b6000819050919050565b600062000d3062000d2a62000d2484620009a9565b62000d05565b620009a9565b9050919050565b6000819050919050565b62000d4c8362000d0f565b62000d6462000d5b8262000d37565b84845462000caf565b825550505050565b600090565b62000d7b62000d6c565b62000d8881848462000d41565b505050565b5b8181101562000db05762000da460008262000d71565b60018101905062000d8e565b5050565b601f82111562000dff5762000dc98162000c7d565b62000dd48462000c92565b8101602085101562000de4578190505b62000dfc62000df38562000c92565b83018262000d8d565b50505b505050565b600082821c905092915050565b600062000e246000198460080262000e04565b1980831691505092915050565b600062000e3f838362000e11565b9150826002028217905092915050565b62000e5a8262000c0e565b67ffffffffffffffff81111562000e765762000e7562000715565b5b62000e82825462000c48565b62000e8f82828562000db4565b600060209050601f83116001811462000ec7576000841562000eb2578287015190505b62000ebe858262000e31565b86555062000f2e565b601f19841662000ed78662000c7d565b60005b8281101562000f015784890151825560018201915060208501945060208101905062000eda565b8683101562000f21578489015162000f1d601f89168262000e11565b8355505b6001600288020188555050505b505050505050565b7f4e487b7100000000000000000000000000000000000000000000000000000000600052603260045260246000fd5b7f4e487b7100000000000000000000000000000000000000000000000000000000600052601160045260246000fd5b600062000fa182620009a9565b915062000fae83620009a9565b925082820190508082111562000fc95762000fc862000f65565b5b92915050565b600082825260208201905092915050565b600062000fed8262000c0e565b62000ff9818562000fcf565b93506200100b81856020860162000808565b620010168162000704565b840191505092915050565b6200102c81620009a9565b82525050565b600060808201905081810360008301526200104e818762000fe0565b9050818103602083015262001064818662000fe0565b905062001075604083018562001021565b818103606083015262001089818462000fe0565b905095945050505050565b614a6680620010a46000396000f3fe608060405234801561001057600080fd5b50600436106101375760003560e01c806386d51252116100b8578063b88d4fde1161007c578063b88d4fde14610357578063b953084e14610373578063c87b56dd14610391578063c8cf27f4146103c1578063e985e9c5146103df578063f8b81ef71461040f57610137565b806386d51252146102bc57806393ce58d2146102de57806395d89b41146102e857806398da4c9514610306578063a22cb4651461033b57610137565b806342842e0e116100ff57806342842e0e146101f2578063504d7e611461020e5780636352211e1461022c57806370a082311461025c5780637df124a11461028c57610137565b806301ffc9a71461013c57806306fdde031461016c578063081812fc1461018a578063095ea7b3146101ba57806323b872dd146101d6575b600080fd5b61015660048036038101906101519190612ea9565b61042b565b6040516101639190612ef1565b60405180910390f35b61017461050d565b6040516101819190612f9c565b60405180910390f35b6101a4600480360381019061019f9190612ff4565b61059f565b6040516101b19190613062565b60405180910390f35b6101d460048036038101906101cf91906130a9565b6105e5565b005b6101f060048036038101906101eb91906130e9565b6106fc565b005b61020c600480360381019061020791906130e9565b61075c565b005b61021661077c565b6040516102239190613212565b60405180910390f35b61024660048036038101906102419190612ff4565b6108d8565b6040516102539190613062565b60405180910390f35b61027660048036038101906102719190613234565b61095e565b6040516102839190613270565b60405180910390f35b6102a660048036038101906102a19190613234565b610a15565b6040516102b39190613270565b60405180910390f35b6102c4610a2d565b6040516102d595949392919061328b565b60405180910390f35b6102e6610b61565b005b6102f0610eee565b6040516102fd9190612f9c565b60405180910390f35b610320600480360381019061031b9190612ff4565b610f80565b604051610332969594939291906132ec565b60405180910390f35b61035560048036038101906103509190613387565b6110cc565b005b610371600480360381019061036c91906134fc565b6110e2565b005b61037b611144565b60405161038891906136d1565b60405180910390f35b6103ab60048036038101906103a69190612ff4565b6112ef565b6040516103b89190612f9c565b60405180910390f35b6103c961150a565b6040516103d69190613783565b60405180910390f35b6103f960048036038101906103f491906137a5565b6116e2565b6040516104069190612ef1565b60405180910390f35b61042960048036038101906104249190612ff4565b611776565b005b60007f80ac58cd000000000000000000000000000000000000000000000000000000007bffffffffffffffffffffffffffffffffffffffffffffffffffffffff1916827bffffffffffffffffffffffffffffffffffffffffffffffffffffffff191614806104f657507f5b5e139f000000000000000000000000000000000000000000000000000000007bffffffffffffffffffffffffffffffffffffffffffffffffffffffff1916827bffffffffffffffffffffffffffffffffffffffffffffffffffffffff1916145b80610506575061050582611b56565b5b9050919050565b60606000805461051c90613814565b80601f016020809104026020016040519081016040528092919081815260200182805461054890613814565b80156105955780601f1061056a57610100808354040283529160200191610595565b820191906000526020600020905b81548152906001019060200180831161057857829003601f168201915b5050505050905090565b60006105aa82611bc0565b6004600083815260200190815260200160002060009054906101000a900473ffffffffffffffffffffffffffffffffffffffff169050919050565b60006105f0826108d8565b90508073ffffffffffffffffffffffffffffffffffffffff168373ffffffffffffffffffffffffffffffffffffffff1603610660576040517f08c379a0000000000000000000000000000000000000000000000000000000008152600401610657906138b7565b60405180910390fd5b8073ffffffffffffffffffffffffffffffffffffffff1661067f611c0b565b73ffffffffffffffffffffffffffffffffffffffff1614806106ae57506106ad816106a8611c0b565b6116e2565b5b6106ed576040517f08c379a00000000000000000000000000000000000000000000000000000000081526004016106e490613949565b60405180910390fd5b6106f78383611c13565b505050565b61070d610707611c0b565b82611ccc565b61074c576040517f08c379a0000000000000000000000000000000000000000000000000000000008152600401610743906139db565b60405180910390fd5b610757838383611d61565b505050565b610777838383604051806020016040528060008152506110e2565b505050565b610784612dd8565b60066040518060a00160405290816000820180546107a190613814565b80601f01602080910402602001604051908101604052809291908181526020018280546107cd90613814565b801561081a5780601f106107ef5761010080835404028352916020019161081a565b820191906000526020600020905b8154815290600101906020018083116107fd57829003601f168201915b5050505050815260200160018201805461083390613814565b80601f016020809104026020016040519081016040528092919081815260200182805461085f90613814565b80156108ac5780601f10610881576101008083540402835291602001916108ac565b820191906000526020600020905b81548152906001019060200180831161088f57829003601f168201915b505050505081526020016002820154815260200160038201548152602001600482015481525050905090565b6000806108e48361205a565b9050600073ffffffffffffffffffffffffffffffffffffffff168173ffffffffffffffffffffffffffffffffffffffff1603610955576040517f08c379a000000000000000000000000000000000000000000000000000000000815260040161094c90613a47565b60405180910390fd5b80915050919050565b60008073ffffffffffffffffffffffffffffffffffffffff168273ffffffffffffffffffffffffffffffffffffffff16036109ce576040517f08c379a00000000000000000000000000000000000000000000000000000000081526004016109c590613ad9565b60405180910390fd5b600360008373ffffffffffffffffffffffffffffffffffffffff1673ffffffffffffffffffffffffffffffffffffffff168152602001908152602001600020549050919050565b600e6020528060005260406000206000915090505481565b6006806000018054610a3e90613814565b80601f0160208091040260200160405190810160405280929190818152602001828054610a6a90613814565b8015610ab75780601f10610a8c57610100808354040283529160200191610ab7565b820191906000526020600020905b815481529060010190602001808311610a9a57829003601f168201915b505050505090806001018054610acc90613814565b80601f0160208091040260200160405190810160405280929190818152602001828054610af890613814565b8015610b455780601f10610b1a57610100808354040283529160200191610b45565b820191906000526020600020905b815481529060010190602001808311610b2857829003601f168201915b5050505050908060020154908060030154908060040154905085565b6000600e60003373ffffffffffffffffffffffffffffffffffffffff1673ffffffffffffffffffffffffffffffffffffffff1681526020019081526020016000205490506000600d60008381526020019081526020016000209050610c746040518060600160405280603c81526020016149f5603c9139826001018054610be790613814565b80601f0160208091040260200160405190810160405280929190818152602001828054610c1390613814565b8015610c605780601f10610c3557610100808354040283529160200191610c60565b820191906000526020600020905b815481529060010190602001808311610c4357829003601f168201915b505050505083600301548460050154612097565b610d4c6040518060400160405280601c81526020017f54726f6c6c2025732068617320257320485020616e642025732041440000000081525060066000018054610cbd90613814565b80601f0160208091040260200160405190810160405280929190818152602001828054610ce990613814565b8015610d365780601f10610d0b57610100808354040283529160200191610d36565b820191906000526020600020905b815481529060010190602001808311610d1957829003601f168201915b5050505050600660020154600660040154612097565b6000816003015411610d93576040517f08c379a0000000000000000000000000000000000000000000000000000000008152600401610d8a90613b6b565b60405180910390fd5b600060066002015411610ddb576040517f08c379a0000000000000000000000000000000000000000000000000000000008152600401610dd290613bfd565b60405180910390fd5b80600501546006600201541015610dfc576000600660020181905550610e1b565b8060050154600660020154610e119190613c4c565b6006600201819055505b60066004015481600301541015610e3b5760008160030181905550610e59565b6006600401548160030154610e509190613c4c565b81600301819055505b7f32bd565ee3f2cb5ddd742bbecd6048d3e9abe90b3827a40c2b72d232e71e3c9d336006600201548360030154604051610e9593929190613c80565b60405180910390a1610ec46040518060600160405280602a815260200161492e602a9139600660020154612139565b610eea6040518060600160405280602f8152602001614998602f91398260030154612139565b5050565b606060018054610efd90613814565b80601f0160208091040260200160405190810160405280929190818152602001828054610f2990613814565b8015610f765780601f10610f4b57610100808354040283529160200191610f76565b820191906000526020600020905b815481529060010190602001808311610f5957829003601f168201915b5050505050905090565b600d602052806000526040600020600091509050806000015490806001018054610fa990613814565b80601f0160208091040260200160405190810160405280929190818152602001828054610fd590613814565b80156110225780601f10610ff757610100808354040283529160200191611022565b820191906000526020600020905b81548152906001019060200180831161100557829003601f168201915b50505050509080600201805461103790613814565b80601f016020809104026020016040519081016040528092919081815260200182805461106390613814565b80156110b05780601f10611085576101008083540402835291602001916110b0565b820191906000526020600020905b81548152906001019060200180831161109357829003601f168201915b5050505050908060030154908060040154908060050154905086565b6110de6110d7611c0b565b83836121d5565b5050565b6110f36110ed611c0b565b83611ccc565b611132576040517f08c379a0000000000000000000000000000000000000000000000000000000008152600401611129906139db565b60405180910390fd5b61113e84848484612341565b50505050565b6060600c805480602002602001604051908101604052809291908181526020016000905b828210156112e657838290600052602060002090600602016040518060c0016040529081600082015481526020016001820180546111a590613814565b80601f01602080910402602001604051908101604052809291908181526020018280546111d190613814565b801561121e5780601f106111f35761010080835404028352916020019161121e565b820191906000526020600020905b81548152906001019060200180831161120157829003601f168201915b5050505050815260200160028201805461123790613814565b80601f016020809104026020016040519081016040528092919081815260200182805461126390613814565b80156112b05780601f10611285576101008083540402835291602001916112b0565b820191906000526020600020905b81548152906001019060200180831161129357829003601f168201915b50505050508152602001600382015481526020016004820154815260200160058201548152505081526020019060010190611168565b50505050905090565b60606000600d60008481526020019081526020016000206040518060c00160405290816000820154815260200160018201805461132b90613814565b80601f016020809104026020016040519081016040528092919081815260200182805461135790613814565b80156113a45780601f10611379576101008083540402835291602001916113a4565b820191906000526020600020905b81548152906001019060200180831161138757829003601f168201915b505050505081526020016002820180546113bd90613814565b80601f01602080910402602001604051908101604052809291908181526020018280546113e990613814565b80156114365780601f1061140b57610100808354040283529160200191611436565b820191906000526020600020905b81548152906001019060200180831161141957829003601f168201915b5050505050815260200160038201548152602001600482015481526020016005820154815250509050600061146e826060015161239d565b9050600061147f836080015161239d565b905060006114908460a0015161239d565b905060006114d685602001516114a58961239d565b87604001518787876040516020016114c296959493929190613f9f565b60405160208183030381529060405261246b565b90506000816040516020016114eb9190614090565b6040516020818303038152906040529050809650505050505050919050565b611512612e07565b6000600e60003373ffffffffffffffffffffffffffffffffffffffff1673ffffffffffffffffffffffffffffffffffffffff16815260200190815260200160002054905060008111156116d157600d60008281526020019081526020016000206040518060c00160405290816000820154815260200160018201805461159790613814565b80601f01602080910402602001604051908101604052809291908181526020018280546115c390613814565b80156116105780601f106115e557610100808354040283529160200191611610565b820191906000526020600020905b8154815290600101906020018083116115f357829003601f168201915b5050505050815260200160028201805461162990613814565b80601f016020809104026020016040519081016040528092919081815260200182805461165590613814565b80156116a25780601f10611677576101008083540402835291602001916116a2565b820191906000526020600020905b81548152906001019060200180831161168557829003601f168201915b5050505050815260200160038201548152602001600482015481526020016005820154815250509150506116df565b6116d9612e07565b80925050505b90565b6000600560008473ffffffffffffffffffffffffffffffffffffffff1673ffffffffffffffffffffffffffffffffffffffff16815260200190815260200160002060008373ffffffffffffffffffffffffffffffffffffffff1673ffffffffffffffffffffffffffffffffffffffff16815260200190815260200160002060009054906101000a900460ff16905092915050565b6000611782600b612602565b905061178e3382612610565b6040518060c00160405280838152602001600c84815481106117b3576117b26140b2565b5b906000526020600020906006020160010180546117cf90613814565b80601f01602080910402602001604051908101604052809291908181526020018280546117fb90613814565b80156118485780601f1061181d57610100808354040283529160200191611848565b820191906000526020600020905b81548152906001019060200180831161182b57829003601f168201915b50505050508152602001600c8481548110611866576118656140b2565b5b9060005260206000209060060201600201805461188290613814565b80601f01602080910402602001604051908101604052809291908181526020018280546118ae90613814565b80156118fb5780601f106118d0576101008083540402835291602001916118fb565b820191906000526020600020905b8154815290600101906020018083116118de57829003601f168201915b50505050508152602001600c8481548110611919576119186140b2565b5b9060005260206000209060060201600301548152602001600c8481548110611944576119436140b2565b5b9060005260206000209060060201600401548152602001600c848154811061196f5761196e6140b2565b5b906000526020600020906006020160050154815250600d60008381526020019081526020016000206000820151816000015560208201518160010190816119b6919061428d565b5060408201518160020190816119cc919061428d565b50606082015181600301556080820151816004015560a08201518160050155905050611a116040518060600160405280602e81526020016149c7602e9139828461262e565b80600e60003373ffffffffffffffffffffffffffffffffffffffff1673ffffffffffffffffffffffffffffffffffffffff16815260200190815260200160002081905550611a5f600b611b40565b7f4bc303fd457a97b4691b9af582ce71868a3d258638c8d4f8c60988a0f0bfb8cd338284604051611a9293929190613c80565b60405180910390a15050565b611b3a84848484604051602401611ab8949392919061435f565b6040516020818303038152906040527f5d1a971a000000000000000000000000000000000000000000000000000000007bffffffffffffffffffffffffffffffffffffffffffffffffffffffff19166020820180517bffffffffffffffffffffffffffffffffffffffffffffffffffffffff83818316178352505050506126cd565b50505050565b6001816000016000828254019250508190555050565b60007f01ffc9a7000000000000000000000000000000000000000000000000000000007bffffffffffffffffffffffffffffffffffffffffffffffffffffffff1916827bffffffffffffffffffffffffffffffffffffffffffffffffffffffff1916149050919050565b611bc9816126f6565b611c08576040517f08c379a0000000000000000000000000000000000000000000000000000000008152600401611bff90613a47565b60405180910390fd5b50565b600033905090565b816004600083815260200190815260200160002060006101000a81548173ffffffffffffffffffffffffffffffffffffffff021916908373ffffffffffffffffffffffffffffffffffffffff160217905550808273ffffffffffffffffffffffffffffffffffffffff16611c86836108d8565b73ffffffffffffffffffffffffffffffffffffffff167f8c5be1e5ebec7d5bd14f71427d1e84f3dd0314c0f7b2291e5b200ac8c7c3b92560405160405180910390a45050565b600080611cd8836108d8565b90508073ffffffffffffffffffffffffffffffffffffffff168473ffffffffffffffffffffffffffffffffffffffff161480611d1a5750611d1981856116e2565b5b80611d5857508373ffffffffffffffffffffffffffffffffffffffff16611d408461059f565b73ffffffffffffffffffffffffffffffffffffffff16145b91505092915050565b8273ffffffffffffffffffffffffffffffffffffffff16611d81826108d8565b73ffffffffffffffffffffffffffffffffffffffff1614611dd7576040517f08c379a0000000000000000000000000000000000000000000000000000000008152600401611dce9061442b565b60405180910390fd5b600073ffffffffffffffffffffffffffffffffffffffff168273ffffffffffffffffffffffffffffffffffffffff1603611e46576040517f08c379a0000000000000000000000000000000000000000000000000000000008152600401611e3d906144bd565b60405180910390fd5b611e538383836001612737565b8273ffffffffffffffffffffffffffffffffffffffff16611e73826108d8565b73ffffffffffffffffffffffffffffffffffffffff1614611ec9576040517f08c379a0000000000000000000000000000000000000000000000000000000008152600401611ec09061442b565b60405180910390fd5b6004600082815260200190815260200160002060006101000a81549073ffffffffffffffffffffffffffffffffffffffff02191690556001600360008573ffffffffffffffffffffffffffffffffffffffff1673ffffffffffffffffffffffffffffffffffffffff168152602001908152602001600020600082825403925050819055506001600360008473ffffffffffffffffffffffffffffffffffffffff1673ffffffffffffffffffffffffffffffffffffffff16815260200190815260200160002060008282540192505081905550816002600083815260200190815260200160002060006101000a81548173ffffffffffffffffffffffffffffffffffffffff021916908373ffffffffffffffffffffffffffffffffffffffff160217905550808273ffffffffffffffffffffffffffffffffffffffff168473ffffffffffffffffffffffffffffffffffffffff167fddf252ad1be2c89b69c2b068fc378daa952ba7f163c4a11628f55a4df523b3ef60405160405180910390a4612055838383600161285d565b505050565b60006002600083815260200190815260200160002060009054906101000a900473ffffffffffffffffffffffffffffffffffffffff169050919050565b612133848484846040516024016120b194939291906144dd565b6040516020818303038152906040527ff45d7d2c000000000000000000000000000000000000000000000000000000007bffffffffffffffffffffffffffffffffffffffffffffffffffffffff19166020820180517bffffffffffffffffffffffffffffffffffffffffffffffffffffffff83818316178352505050506126cd565b50505050565b6121d1828260405160240161214f929190614530565b6040516020818303038152906040527fb60e72cc000000000000000000000000000000000000000000000000000000007bffffffffffffffffffffffffffffffffffffffffffffffffffffffff19166020820180517bffffffffffffffffffffffffffffffffffffffffffffffffffffffff83818316178352505050506126cd565b5050565b8173ffffffffffffffffffffffffffffffffffffffff168373ffffffffffffffffffffffffffffffffffffffff1603612243576040517f08c379a000000000000000000000000000000000000000000000000000000000815260040161223a906145ac565b60405180910390fd5b80600560008573ffffffffffffffffffffffffffffffffffffffff1673ffffffffffffffffffffffffffffffffffffffff16815260200190815260200160002060008473ffffffffffffffffffffffffffffffffffffffff1673ffffffffffffffffffffffffffffffffffffffff16815260200190815260200160002060006101000a81548160ff0219169083151502179055508173ffffffffffffffffffffffffffffffffffffffff168373ffffffffffffffffffffffffffffffffffffffff167f17307eab39ab6107e8899845ad3d59bd9653f200f220920489ca2b5937696c31836040516123349190612ef1565b60405180910390a3505050565b61234c848484611d61565b61235884848484612863565b612397576040517f08c379a000000000000000000000000000000000000000000000000000000000815260040161238e9061463e565b60405180910390fd5b50505050565b6060600060016123ac846129ea565b01905060008167ffffffffffffffff8111156123cb576123ca6133d1565b5b6040519080825280601f01601f1916602001820160405280156123fd5781602001600182028036833780820191505090505b509050600082602001820190505b600115612460578080600190039150507f3031323334353637383961626364656600000000000000000000000000000000600a86061a8153600a85816124545761245361465e565b5b0494506000850361240b575b819350505050919050565b60606000825190506000810361249357604051806020016040528060008152509150506125fd565b600060036002836124a4919061468d565b6124ae91906146c1565b60046124ba91906146f2565b905060006020826124cb919061468d565b67ffffffffffffffff8111156124e4576124e36133d1565b5b6040519080825280601f01601f1916602001820160405280156125165781602001600182028036833780820191505090505b5090506000604051806060016040528060408152602001614958604091399050600181016020830160005b868110156125ba5760038101905062ffffff818a015116603f8160121c168401518060081b905060ff603f83600c1c1686015116810190508060081b905060ff603f8360061c1686015116810190508060081b905060ff603f831686015116810190508060e01b90508084526004840193505050612541565b5060038606600181146125d457600281146125e4576125ef565b613d3d60f01b60028303526125ef565b603d60f81b60018303525b508484525050819450505050505b919050565b600081600001549050919050565b61262a828260405180602001604052806000815250612b3d565b5050565b6126c883838360405160240161264693929190614734565b6040516020818303038152906040527fca47c4eb000000000000000000000000000000000000000000000000000000007bffffffffffffffffffffffffffffffffffffffffffffffffffffffff19166020820180517bffffffffffffffffffffffffffffffffffffffffffffffffffffffff83818316178352505050506126cd565b505050565b60008151905060006a636f6e736f6c652e6c6f679050602083016000808483855afa5050505050565b60008073ffffffffffffffffffffffffffffffffffffffff166127188361205a565b73ffffffffffffffffffffffffffffffffffffffff1614159050919050565b600181111561285757600073ffffffffffffffffffffffffffffffffffffffff168473ffffffffffffffffffffffffffffffffffffffff16146127cb5780600360008673ffffffffffffffffffffffffffffffffffffffff1673ffffffffffffffffffffffffffffffffffffffff16815260200190815260200160002060008282546127c39190613c4c565b925050819055505b600073ffffffffffffffffffffffffffffffffffffffff168373ffffffffffffffffffffffffffffffffffffffff16146128565780600360008573ffffffffffffffffffffffffffffffffffffffff1673ffffffffffffffffffffffffffffffffffffffff168152602001908152602001600020600082825461284e919061468d565b925050819055505b5b50505050565b50505050565b60006128848473ffffffffffffffffffffffffffffffffffffffff16612b98565b156129dd578373ffffffffffffffffffffffffffffffffffffffff1663150b7a026128ad611c0b565b8786866040518563ffffffff1660e01b81526004016128cf94939291906147c7565b6020604051808303816000875af192505050801561290b57506040513d601f19601f820116820180604052508101906129089190614828565b60015b61298d573d806000811461293b576040519150601f19603f3d011682016040523d82523d6000602084013e612940565b606091505b506000815103612985576040517f08c379a000000000000000000000000000000000000000000000000000000000815260040161297c9061463e565b60405180910390fd5b805181602001fd5b63150b7a0260e01b7bffffffffffffffffffffffffffffffffffffffffffffffffffffffff1916817bffffffffffffffffffffffffffffffffffffffffffffffffffffffff1916149150506129e2565b600190505b949350505050565b600080600090507a184f03e93ff9f4daa797ed6e38ed64bf6a1f0100000000000000008310612a48577a184f03e93ff9f4daa797ed6e38ed64bf6a1f0100000000000000008381612a3e57612a3d61465e565b5b0492506040810190505b6d04ee2d6d415b85acef81000000008310612a85576d04ee2d6d415b85acef81000000008381612a7b57612a7a61465e565b5b0492506020810190505b662386f26fc100008310612ab457662386f26fc100008381612aaa57612aa961465e565b5b0492506010810190505b6305f5e1008310612add576305f5e1008381612ad357612ad261465e565b5b0492506008810190505b6127108310612b02576127108381612af857612af761465e565b5b0492506004810190505b60648310612b255760648381612b1b57612b1a61465e565b5b0492506002810190505b600a8310612b34576001810190505b80915050919050565b612b478383612bbb565b612b546000848484612863565b612b93576040517f08c379a0000000000000000000000000000000000000000000000000000000008152600401612b8a9061463e565b60405180910390fd5b505050565b6000808273ffffffffffffffffffffffffffffffffffffffff163b119050919050565b600073ffffffffffffffffffffffffffffffffffffffff168273ffffffffffffffffffffffffffffffffffffffff1603612c2a576040517f08c379a0000000000000000000000000000000000000000000000000000000008152600401612c21906148a1565b60405180910390fd5b612c33816126f6565b15612c73576040517f08c379a0000000000000000000000000000000000000000000000000000000008152600401612c6a9061490d565b60405180910390fd5b612c81600083836001612737565b612c8a816126f6565b15612cca576040517f08c379a0000000000000000000000000000000000000000000000000000000008152600401612cc19061490d565b60405180910390fd5b6001600360008473ffffffffffffffffffffffffffffffffffffffff1673ffffffffffffffffffffffffffffffffffffffff16815260200190815260200160002060008282540192505081905550816002600083815260200190815260200160002060006101000a81548173ffffffffffffffffffffffffffffffffffffffff021916908373ffffffffffffffffffffffffffffffffffffffff160217905550808273ffffffffffffffffffffffffffffffffffffffff16600073ffffffffffffffffffffffffffffffffffffffff167fddf252ad1be2c89b69c2b068fc378daa952ba7f163c4a11628f55a4df523b3ef60405160405180910390a4612dd460008383600161285d565b5050565b6040518060a0016040528060608152602001606081526020016000815260200160008152602001600081525090565b6040518060c001604052806000815260200160608152602001606081526020016000815260200160008152602001600081525090565b6000604051905090565b600080fd5b600080fd5b60007fffffffff0000000000000000000000000000000000000000000000000000000082169050919050565b612e8681612e51565b8114612e9157600080fd5b50565b600081359050612ea381612e7d565b92915050565b600060208284031215612ebf57612ebe612e47565b5b6000612ecd84828501612e94565b91505092915050565b60008115159050919050565b612eeb81612ed6565b82525050565b6000602082019050612f066000830184612ee2565b92915050565b600081519050919050565b600082825260208201905092915050565b60005b83811015612f46578082015181840152602081019050612f2b565b60008484015250505050565b6000601f19601f8301169050919050565b6000612f6e82612f0c565b612f788185612f17565b9350612f88818560208601612f28565b612f9181612f52565b840191505092915050565b60006020820190508181036000830152612fb68184612f63565b905092915050565b6000819050919050565b612fd181612fbe565b8114612fdc57600080fd5b50565b600081359050612fee81612fc8565b92915050565b60006020828403121561300a57613009612e47565b5b600061301884828501612fdf565b91505092915050565b600073ffffffffffffffffffffffffffffffffffffffff82169050919050565b600061304c82613021565b9050919050565b61305c81613041565b82525050565b60006020820190506130776000830184613053565b92915050565b61308681613041565b811461309157600080fd5b50565b6000813590506130a38161307d565b92915050565b600080604083850312156130c0576130bf612e47565b5b60006130ce85828601613094565b92505060206130df85828601612fdf565b9150509250929050565b60008060006060848603121561310257613101612e47565b5b600061311086828701613094565b935050602061312186828701613094565b925050604061313286828701612fdf565b9150509250925092565b600082825260208201905092915050565b600061315882612f0c565b613162818561313c565b9350613172818560208601612f28565b61317b81612f52565b840191505092915050565b61318f81612fbe565b82525050565b600060a08301600083015184820360008601526131b2828261314d565b915050602083015184820360208601526131cc828261314d565b91505060408301516131e16040860182613186565b5060608301516131f46060860182613186565b5060808301516132076080860182613186565b508091505092915050565b6000602082019050818103600083015261322c8184613195565b905092915050565b60006020828403121561324a57613249612e47565b5b600061325884828501613094565b91505092915050565b61326a81612fbe565b82525050565b60006020820190506132856000830184613261565b92915050565b600060a08201905081810360008301526132a58188612f63565b905081810360208301526132b98187612f63565b90506132c86040830186613261565b6132d56060830185613261565b6132e26080830184613261565b9695505050505050565b600060c0820190506133016000830189613261565b81810360208301526133138188612f63565b905081810360408301526133278187612f63565b90506133366060830186613261565b6133436080830185613261565b61335060a0830184613261565b979650505050505050565b61336481612ed6565b811461336f57600080fd5b50565b6000813590506133818161335b565b92915050565b6000806040838503121561339e5761339d612e47565b5b60006133ac85828601613094565b92505060206133bd85828601613372565b9150509250929050565b600080fd5b600080fd5b7f4e487b7100000000000000000000000000000000000000000000000000000000600052604160045260246000fd5b61340982612f52565b810181811067ffffffffffffffff82111715613428576134276133d1565b5b80604052505050565b600061343b612e3d565b90506134478282613400565b919050565b600067ffffffffffffffff821115613467576134666133d1565b5b61347082612f52565b9050602081019050919050565b82818337600083830152505050565b600061349f61349a8461344c565b613431565b9050828152602081018484840111156134bb576134ba6133cc565b5b6134c684828561347d565b509392505050565b600082601f8301126134e3576134e26133c7565b5b81356134f384826020860161348c565b91505092915050565b6000806000806080858703121561351657613515612e47565b5b600061352487828801613094565b945050602061353587828801613094565b935050604061354687828801612fdf565b925050606085013567ffffffffffffffff81111561356757613566612e4c565b5b613573878288016134ce565b91505092959194509250565b600081519050919050565b600082825260208201905092915050565b6000819050602082019050919050565b600060c0830160008301516135c36000860182613186565b50602083015184820360208601526135db828261314d565b915050604083015184820360408601526135f5828261314d565b915050606083015161360a6060860182613186565b50608083015161361d6080860182613186565b5060a083015161363060a0860182613186565b508091505092915050565b600061364783836135ab565b905092915050565b6000602082019050919050565b60006136678261357f565b613671818561358a565b9350836020820285016136838561359b565b8060005b858110156136bf57848403895281516136a0858261363b565b94506136ab8361364f565b925060208a01995050600181019050613687565b50829750879550505050505092915050565b600060208201905081810360008301526136eb818461365c565b905092915050565b600060c08301600083015161370b6000860182613186565b5060208301518482036020860152613723828261314d565b9150506040830151848203604086015261373d828261314d565b91505060608301516137526060860182613186565b5060808301516137656080860182613186565b5060a083015161377860a0860182613186565b508091505092915050565b6000602082019050818103600083015261379d81846136f3565b905092915050565b600080604083850312156137bc576137bb612e47565b5b60006137ca85828601613094565b92505060206137db85828601613094565b9150509250929050565b7f4e487b7100000000000000000000000000000000000000000000000000000000600052602260045260246000fd5b6000600282049050600182168061382c57607f821691505b60208210810361383f5761383e6137e5565b5b50919050565b7f4552433732313a20617070726f76616c20746f2063757272656e74206f776e6560008201527f7200000000000000000000000000000000000000000000000000000000000000602082015250565b60006138a1602183612f17565b91506138ac82613845565b604082019050919050565b600060208201905081810360008301526138d081613894565b9050919050565b7f4552433732313a20617070726f76652063616c6c6572206973206e6f7420746f60008201527f6b656e206f776e6572206f7220617070726f76656420666f7220616c6c000000602082015250565b6000613933603d83612f17565b915061393e826138d7565b604082019050919050565b6000602082019050818103600083015261396281613926565b9050919050565b7f4552433732313a2063616c6c6572206973206e6f7420746f6b656e206f776e6560008201527f72206f7220617070726f76656400000000000000000000000000000000000000602082015250565b60006139c5602d83612f17565b91506139d082613969565b604082019050919050565b600060208201905081810360008301526139f4816139b8565b9050919050565b7f4552433732313a20696e76616c696420746f6b656e2049440000000000000000600082015250565b6000613a31601883612f17565b9150613a3c826139fb565b602082019050919050565b60006020820190508181036000830152613a6081613a24565b9050919050565b7f4552433732313a2061646472657373207a65726f206973206e6f74206120766160008201527f6c6964206f776e65720000000000000000000000000000000000000000000000602082015250565b6000613ac3602983612f17565b9150613ace82613a67565b604082019050919050565b60006020820190508181036000830152613af281613ab6565b9050919050565b7f4572726f723a20636861726163746572206d757374206861766520485020746f60008201527f2061747461636b207468652074726f6c6c2e0000000000000000000000000000602082015250565b6000613b55603283612f17565b9150613b6082613af9565b604082019050919050565b60006020820190508181036000830152613b8481613b48565b9050919050565b7f4572726f723a2074726f6c6c206d757374206861766520485020746f2062652060008201527f61747461636b65642e0000000000000000000000000000000000000000000000602082015250565b6000613be7602983612f17565b9150613bf282613b8b565b604082019050919050565b60006020820190508181036000830152613c1681613bda565b9050919050565b7f4e487b7100000000000000000000000000000000000000000000000000000000600052601160045260246000fd5b6000613c5782612fbe565b9150613c6283612fbe565b9250828203905081811115613c7a57613c79613c1d565b5b92915050565b6000606082019050613c956000830186613053565b613ca26020830185613261565b613caf6040830184613261565b949350505050565b600081905092915050565b7f7b226e616d65223a202200000000000000000000000000000000000000000000600082015250565b6000613cf8600a83613cb7565b9150613d0382613cc2565b600a82019050919050565b6000613d1982612f0c565b613d238185613cb7565b9350613d33818560208601612f28565b80840191505092915050565b7f202d2d204e465420233a20000000000000000000000000000000000000000000600082015250565b6000613d75600b83613cb7565b9150613d8082613d3f565b600b82019050919050565b7f222c20226465736372697074696f6e223a20225468697320697320616e204e4660008201527f542074686174206c6574732070656f706c6520706c617920696e20746865206760208201527f616d652042656174205468652054726f6c6c222c2022696d616765223a202200604082015250565b6000613e0d605f83613cb7565b9150613e1882613d8b565b605f82019050919050565b7f222c202261747472696275746573223a205b207b202274726169745f7479706560008201527f223a20224865616c746820506f696e7473222c202276616c7565223a20000000602082015250565b6000613e7f603d83613cb7565b9150613e8a82613e23565b603d82019050919050565b7f2c20226d61785f76616c7565223a000000000000000000000000000000000000600082015250565b6000613ecb600e83613cb7565b9150613ed682613e95565b600e82019050919050565b7f7d2c207b202274726169745f74797065223a202241747461636b2044616d616760008201527f65222c202276616c7565223a2000000000000000000000000000000000000000602082015250565b6000613f3d602d83613cb7565b9150613f4882613ee1565b602d82019050919050565b7f7d205d7d00000000000000000000000000000000000000000000000000000000600082015250565b6000613f89600483613cb7565b9150613f9482613f53565b600482019050919050565b6000613faa82613ceb565b9150613fb68289613d0e565b9150613fc182613d68565b9150613fcd8288613d0e565b9150613fd882613e00565b9150613fe48287613d0e565b9150613fef82613e72565b9150613ffb8286613d0e565b915061400682613ebe565b91506140128285613d0e565b915061401d82613f30565b91506140298284613d0e565b915061403482613f7c565b9150819050979650505050505050565b7f646174613a6170706c69636174696f6e2f6a736f6e3b6261736536342c000000600082015250565b600061407a601d83613cb7565b915061408582614044565b601d82019050919050565b600061409b8261406d565b91506140a78284613d0e565b915081905092915050565b7f4e487b7100000000000000000000000000000000000000000000000000000000600052603260045260246000fd5b60008190508160005260206000209050919050565b60006020601f8301049050919050565b600082821b905092915050565b6000600883026141437fffffffffffffffffffffffffffffffffffffffffffffffffffffffffffffffff82614106565b61414d8683614106565b95508019841693508086168417925050509392505050565b6000819050919050565b600061418a61418561418084612fbe565b614165565b612fbe565b9050919050565b6000819050919050565b6141a48361416f565b6141b86141b082614191565b848454614113565b825550505050565b600090565b6141cd6141c0565b6141d881848461419b565b505050565b5b818110156141fc576141f16000826141c5565b6001810190506141de565b5050565b601f82111561424157614212816140e1565b61421b846140f6565b8101602085101561422a578190505b61423e614236856140f6565b8301826141dd565b50505b505050565b600082821c905092915050565b600061426460001984600802614246565b1980831691505092915050565b600061427d8383614253565b9150826002028217905092915050565b61429682612f0c565b67ffffffffffffffff8111156142af576142ae6133d1565b5b6142b98254613814565b6142c4828285614200565b600060209050601f8311600181146142f757600084156142e5578287015190505b6142ef8582614271565b865550614357565b601f198416614305866140e1565b60005b8281101561432d57848901518255600182019150602085019450602081019050614308565b8683101561434a5784890151614346601f891682614253565b8355505b6001600288020188555050505b505050505050565b600060808201905081810360008301526143798187612f63565b9050818103602083015261438d8186612f63565b905061439c6040830185613261565b81810360608301526143ae8184612f63565b905095945050505050565b7f4552433732313a207472616e736665722066726f6d20696e636f72726563742060008201527f6f776e6572000000000000000000000000000000000000000000000000000000602082015250565b6000614415602583612f17565b9150614420826143b9565b604082019050919050565b6000602082019050818103600083015261444481614408565b9050919050565b7f4552433732313a207472616e7366657220746f20746865207a65726f2061646460008201527f7265737300000000000000000000000000000000000000000000000000000000602082015250565b60006144a7602483612f17565b91506144b28261444b565b604082019050919050565b600060208201905081810360008301526144d68161449a565b9050919050565b600060808201905081810360008301526144f78187612f63565b9050818103602083015261450b8186612f63565b905061451a6040830185613261565b6145276060830184613261565b95945050505050565b6000604082019050818103600083015261454a8185612f63565b90506145596020830184613261565b9392505050565b7f4552433732313a20617070726f766520746f2063616c6c657200000000000000600082015250565b6000614596601983612f17565b91506145a182614560565b602082019050919050565b600060208201905081810360008301526145c581614589565b9050919050565b7f4552433732313a207472616e7366657220746f206e6f6e20455243373231526560008201527f63656976657220696d706c656d656e7465720000000000000000000000000000602082015250565b6000614628603283612f17565b9150614633826145cc565b604082019050919050565b600060208201905081810360008301526146578161461b565b9050919050565b7f4e487b7100000000000000000000000000000000000000000000000000000000600052601260045260246000fd5b600061469882612fbe565b91506146a383612fbe565b92508282019050808211156146bb576146ba613c1d565b5b92915050565b60006146cc82612fbe565b91506146d783612fbe565b9250826146e7576146e661465e565b5b828204905092915050565b60006146fd82612fbe565b915061470883612fbe565b925082820261471681612fbe565b9150828204841483151761472d5761472c613c1d565b5b5092915050565b6000606082019050818103600083015261474e8186612f63565b905061475d6020830185613261565b61476a6040830184613261565b949350505050565b600081519050919050565b600082825260208201905092915050565b600061479982614772565b6147a3818561477d565b93506147b3818560208601612f28565b6147bc81612f52565b840191505092915050565b60006080820190506147dc6000830187613053565b6147e96020830186613053565b6147f66040830185613261565b8181036060830152614808818461478e565b905095945050505050565b60008151905061482281612e7d565b92915050565b60006020828403121561483e5761483d612e47565b5b600061484c84828501614813565b91505092915050565b7f4552433732313a206d696e7420746f20746865207a65726f2061646472657373600082015250565b600061488b602083612f17565b915061489682614855565b602082019050919050565b600060208201905081810360008301526148ba8161487e565b9050919050565b7f4552433732313a20746f6b656e20616c7265616479206d696e74656400000000600082015250565b60006148f7601c83612f17565b9150614902826148c1565b602082019050919050565b60006020820190508181036000830152614926816148ea565b905091905056fe4368617261637465722061747461636b65642074726f6c6c2e204e65772074726f6c6c2068703a2025734142434445464748494a4b4c4d4e4f505152535455565758595a6162636465666768696a6b6c6d6e6f707172737475767778797a303132333435363738392b2f54726f6c6c2061747461636b6564206368617261637465722e204e6577206368617261637465722068703a2025730a4d696e746564204e465420772f20746f6b656e496420257320616e6420636861726163746572496e6465782025730a506c6179657220772f206368617261637465722025732061626f757420746f2061747461636b2e2048617320257320485020616e64202573204144a26469706673582212205d229b0fb782ee957f0695429f7a31b7e5739791bdcf5738f18778b025db718964736f6c63430008110033446f6e6520696e697469616c697a696e6720257320772f2048502025732c20696d67202573446f6e6520696e697469616c697a696e672074726f6c6c20257320772f2048502025732c20696d67202573",
  "linkReferences": {},
  "deployedLinkReferences": {}
}